:020000040800F2
:1000000060070020910100080D0F00087F0A00081A
:10001000090F0008B9040008E718000800000000F4
:100020000000000000000000000000009114000823
:10003000BD04000800000000031100087D15000841
:10004000AB010008AB010008AB010008691400080F
:10005000AB010008AB010008AB010008AB010008D0
:10006000AB010008AB010008AB010008AB010008C0
:10007000AB010008AB010008AB010008AB010008B0
:10008000AB010008AB010008AB010008AB010008A0
:10009000AB010008AB010008AB010008AB01000890
:1000A000AB010008AB010008AB010008AB01000880
:1000B000AB010008AB010008AB010008AB01000870
:1000C000AB010008AB010008AB010008AB01000860
:1000D000AB01000819160008AB010008AB010008CD
:1000E000AB01000821140008AB01000800F002F881
:1000F00000F03FF80AA090E8000C82448344AAF183
:100100000107DA4501D100F034F8AFF2090EBAE880
:100110000F0013F0010F18BFFB1A43F0010318473B
:10012000AC2B0000CC2B0000103A24BF78C878C15B
:10013000FAD8520724BF30C830C144BF04680C60ED
:10014000704700000023002400250026103A28BF35
:1001500078C1FBD8520728BF30C148BF0B60704739
:10016000632900F05781002070471FB51FBD10B5EF
:1001700010BD00F071F91146FFF7F7FF01F06CFCBC
:1001800000F08FF903B4FFF7F2FF03BC01F0B4FBFA
:100190000948804709480047FEE7FEE7FEE7FEE71B
:1001A000FEE7FEE7FEE7FEE7FEE7FEE70448054957
:1001B000054A064B7047000081150008ED00000855
:1001C0006001002060070020600300206003002021
:1001D000704700000FB4044910B503AA029800F05C
:1001E00025F910BC5DF814FB3000002070B50C46FA
:1001F0000546012A05D02878800600D5EA69002343
:1002000002E0012305E05B1C934202D2E05C00287F
:10021000F9D1A869E618C01AA861286A18442862AA
:100220002846AFF3008004E0D5E9012114F8010B62
:100230009047B442F8D32846AFF3008070BD000069
:100240002DE9F05F894604464FF0000ADFF874B1EB
:10025000FB44C0F820A02046E1688847002874D0FD
:10026000252806D0D4E901219047206A401C20624D
:10027000F1E700265F462046E168884720280546CA
:1002800007DB312D05D2781910F8200C08B1064390
:10029000F1E7B00701D526F00406C4F81CA000273A
:1002A000C4F818A02A2D09D0284601F01EFB38B347
:1002B00004EB8708303DC8F8185019E059F8041BC2
:1002C000204604EB87029161E1688847012F0546CB
:1002D00018D1E069002820DA26F020061DE0D8F8C1
:1002E000180000EB800005EB40003038C8F818001B
:1002F0002046E1688847054601F0F7FA0028EED16C
:10030000012F0AD02E2D08D12046E16888477F1C96
:100310000546022F46F02006C4DBA069002803DA58
:10032000404246F00106A061F00701D026F0100619
:100330006C2D0BD0682D09D04C2D39D06A2D35D0BD
:10034000742D35D07A2D33D016E038E0E1682F4691
:1003500020468847B842054609D16C2F26D04FF475
:100360008060E168064320468847054604E06C2F1C
:100370001AD04FF4807006430DB3A5F1410019283F
:1003800002D8203546F400664A46294620462660B3
:100390004E46FFF7E5FE80B101280BD0F61D26F092
:1003A000070000F1080956E74020E4E78020D8E77D
:1003B0000020D6E706F104094DE7284652E7206AF7
:1003C000BDE8F09F662A000070477047704770478D
:1003D00001694A1C02610878704700B58FB0CDE909
:1003E00001310021059105497944CDE903101146F9
:1003F0006846FFF725FF0FB000BD0000E5FFFFFFD7
:1004000010B5436913B1AFF3008001E0FFF7EEFED2
:10041000012010BD127800F124010A7000224A70F8
:100420000122EDE711684FF0FF32E9E7074B70B5A5
:100430000D467B44FFF7D1FF0446284600F008F83C
:1004400010B14FF0FF3070BD204670BD07160000A0
:10045000007B00F080007047754600F029F8AE463A
:1004600005006946534620F00700854618B020B5C0
:10047000FFF79CFEBDE820404FF000064FF000075C
:100480004FF000084FF0000B21F00701AC46ACE83C
:10049000C009ACE8C009ACE8C009ACE8C0098D46A9
:1004A00070470446AFF300802046FFF76BFE000064
:1004B000004870470001002000BFFEE770470000C1
:1004C0000549096821F01001034A116011460968C5
:1004D00001431160704700000020024001460020E7
:1004E000034A106800F038000843106070470000AD
:1004F0000020024010B509A1002000F097FD0BA1DB
:10050000022000F093FD0DA1042000F08FFD0320D8
:1005100001F002FA00F09CFD10BD0000496E7075FC
:100520007420436F6D6D616E643A0000202020627C
:1005300061636B776F72642E2E2E000050657266B9
:100540006F726D2074686520656E64210000000084
:1005500010B509A1002000F069FD0BA1022000F0F8
:1005600065FD0DA1042000F061FD032001F0D4F928
:1005700000F06EFD10BD0000496E70757420436F71
:100580006D6D616E643A0000202020666F72776F97
:1005900072642E2E2E000000506572666F726D2000
:1005A00074686520656E64210000000010B509A123
:1005B000002000F03BFD0BA1022000F037FD0EA152
:1005C000042000F033FD032001F0A6F900F040FD07
:1005D00010BD0000496E70757420436F6D6D616EC3
:1005E000643A000073746F70206261636B776F729E
:1005F0006B2E2E2E00000000506572666F726D200B
:1006000074686520656E64210000000010B509A1C2
:10061000002000F00BFD0BA1022000F007FD0DA152
:10062000042000F003FD032001F076F900F010FD36
:1006300010BD0000496E70757420436F6D6D616E62
:10064000643A000073746F7020666F72776F726423
:100650002E2E2E00506572666F726D2074686520B4
:10066000656E64210000000010B509A1002000F0B3
:10067000DDFC0BA1022000F0D9FC0DA1042000F04C
:10068000D5FC032001F048F900F0E2FC10BD0000A9
:10069000496E70757420436F6D6D616E643A000031
:1006A000202020616C6C2073746F702E2E2E000041
:1006B000506572666F726D2074686520656E642186
:1006C0000000000010B507A1022000F0AFFC09A156
:1006D000042000F0ABFC032001F01EF900F0B8FC90
:1006E00010BD00002020536861646F77206B6E6935
:1006F00066650000202020202073797374656D00EA
:1007000010B54E48008800F44040002872D04B4895
:100710000088C0F30D0000280CD149A0FFF75AFD56
:1007200050A0FFF757FD5CA0FFF754FD65A0FFF751
:1007300051FD7FE041480088C0F30D00022811D12F
:100740006B48007866280DD169484078662809D141
:100750000121684800F091F967A0FFF73BFDFFF722
:10076000F7FE67E035480088C0F30D00022811D17C
:100770005F48007873280DD15D484078662809D11C
:1007800001215C4800F077F95EA0FFF723FDFFF739
:100790003DFF4FE029480088C0F30D00022811D129
:1007A0005348007862280DD151484078622809D119
:1007B0000221504800F061F956A0FFF70BFDFFF74A
:1007C00099FE37E01D480088C0F30D00022812D1C1
:1007D0004748007873280ED14548407862280AD1EE
:1007E0000221444800F047F94DA0FFF7F3FCFFF762
:1007F000DDFE1FE021E011480088C0F30D00022853
:1008000015D13B480078732811D1394840787328B6
:100810000DD10121374800F02EF90221354800F0B2
:100820002AF943A0FFF7D6FCFFF71EFF02E043A022
:10083000FFF7D0FC00200149088010BD34000020E3
:1008400020202020202020202020202020202020A8
:100850002020202020202020202020202020202098
:10086000200D0A0020E8AFB7E8BE93E585A5E4BBFC
:10087000A5E4B88BE68C87E4BBA4EFBC8CE5B9B6E5
:10088000E59B9EE8BDA6E8BF9BE8A18CE6938DE4BE
:10089000BD9CEFBC9A0D0A002066662DE5898DE8A7
:1008A000BF9B202062622DE5908EE980802020731E
:1008B000732DE5819CE6ADA2202020202020200D74
:1008C0000A0000002073662DE5819CE6ADA2E58953
:1008D0008DE8BF9B202073622DE5819CE6ADA2E5EB
:1008E000908EE9808020202020202020200D0A00EA
:1008F00038000020000C0140E5898DE8BF9B200DE9
:100900000A000000E5819CE6ADA2E5898DE8BF9B69
:10091000200D0A00E5908EE98080200D0A0000007D
:10092000E5819CE6ADA2E5908EE98080200D0A006D
:10093000E5819CE6ADA2200D0A000000E68C87E46C
:10094000BBA4E99499E8AFAFEFBC8CE8AFB7E987F7
:100950008DE696B0E8BE93E585A5200D0A0000005F
:100960002DE9F04102460025002600200023002446
:10097000002791F803C00CF00F0591F803C00CF0AC
:10098000100CBCF1000F03D091F802C04CEA050531
:1009900091F800C0BCF1000F31D0146800202BE0AA
:1009A0004FF0010C0CFA00F3B1F800C00CEA03069A
:1009B0009E4220D183004FF00F0C0CFA03F7BC438A
:1009C00005FA03FC4CEA040491F803C0BCF1280FBB
:1009D00006D14FF0010C0CFA00FCC2F814C00AE07A
:1009E00091F803C0BCF1480F05D14FF0010C0CFA8F
:1009F00000FCC2F810C0401C0828D1D31460B1F824
:100A000000C0BCF1FF0F34DD546800202EE000F17F
:100A1000080C4FF0010808FA0CF3B1F800C00CEA1A
:100A200003069E4221D183004FF00F0C0CFA03F70E
:100A3000BC4305FA03FC4CEA040491F803C0BCF182
:100A4000280F05D100F1080C08FA0CF8C2F8148040
:100A500091F803C0BCF1480F07D100F1080C4FF02A
:100A6000010808FA0CF8C2F81080401C0828CED300
:100A70005460BDE8F081416170470161704700BF7B
:100A8000FEE7000070B504460E46154601211948E0
:100A900000F068F900BF1849164800F0D9F800289E
:100AA000F9D000222146134800F00CFA00BF134988
:100AB000104800F0CDF80028F9D031460D4800F07C
:100AC0000AFA00BF0D49891C0A4800F0C1F8002845
:100AD000F8D02946074800F0FEF900BF0749891CF5
:100AE000044800F0B5F80028F8D00121014800F0D2
:100AF00045F970BD0054004001000300820007006A
:100B000070B504460D4600BF4FF40031284800F090
:100B100041F90028F8D10121254800F023F900BF50
:100B20002449234800F094F80028F9D000222146F7
:100B30001F4800F0C7F900BF1F491D4800F088F8A2
:100B40000028F9D001211A4800F097F829461848E2
:100B500000F0C1F900BF1849891C154800F078F869
:100B60000028F8D00121124800F0FCF800BF11491C
:100B70000F4800F06DF80028F9D0012221460C48FA
:100B800000F0A0F900BF0B49491C094800F060F8CB
:100B90000028F8D00021064800F04EF80121044852
:100BA00000F0ECF8024800F089F90646304670BDC6
:100BB00000580040010003008200070070B50446A1
:100BC0000E4615460121194800F0CCF800BF18491F
:100BD000164800F03DF80028F9D0002221461348BD
:100BE00000F070F900BF1349104800F031F80028F8
:100BF000F9D031460D4800F06EF900BF0D49891C4F
:100C00000A4800F025F80028F8D02946074800F0E7
:100C100062F900BF0749891C044800F019F8002850
:100C2000F8D00121014800F0A9F870BD005800403B
:100C3000010003008200070021B1028842F48062B3
:100C4000028004E002884FF6FF331A4002807047AA
:100C500070B502460024002500230020958A138BDE
:100C60001B0445EA030626F07F4404EA01068E428F
:100C700001D1012000E0002070BD21B1028842F0C6
:100C80000102028004E002884FF6FE731A400280DF
:100C9000704700001FB500F03DF80020ADF80400DB
:100CA0004BF6FF70ADF80600C020ADF808004FF419
:100CB0008060ADF80A000001ADF80C001248009009
:100CC0006946124800F084F801211048FFF7D5FF6B
:100CD0000020ADF804004BF6FF70ADF80600C02010
:100CE000ADF808004FF48060ADF80A000001ADF8DF
:100CF0000C00054800906946054800F069F801219C
:100D00000348FFF7BAFF1FBD400D03000054004029
:100D10000058004008B501211C2000F003FA012111
:100D20004FF4C00000F0EEF9C020ADF800001C2028
:100D30008DF8030003208DF8020069460848FFF78C
:100D40000FFE4FF44060ADF800001C208DF803004A
:100D500003208DF8020069460148FFF701FE08BD37
:100D6000000C014021B1028842F48072028004E04C
:100D700002884FF6FF631A400280704721B1028853
:100D800042F40072028004E002884FF6FF531A40DA
:100D9000028070470CB502460020002301930093A7
:100DA00000920B0F019321F07F41019B1BB1009B2F
:100DB0001433009303E0090C009B18330093009B4D
:100DC0001B680B400BB1012000E000200CBD0000AF
:100DD0002DE9F04385B004460D460026B1460427B0
:100DE000DFF8CC80A6884FF6C0700640684600F059
:100DF00001FADDF808802F48B8FBF0F01FFA80F9FF
:100E000046EA0906A68020884FF6FE710840208039
:100E100000262949286888420CD828684000B8FB79
:100E2000F0F087B2042F00DA04273E4309F10100F5
:100E3000208427E0E8884BF6FF71884206D12868B5
:100E400000EB4000B8FBF0F087B209E0286800EB47
:100E5000C00101EB0010B8FBF0F087B247F4804707
:100E6000C7F30B0008B947F0010747F400400643F9
:100E70004FF4967009FB00F04FF47A7190FBF1F09B
:100E8000401C2084A683208840F001002080268812
:100E90004FF6F5300640A888698908430643268046
:100EA000A88929890843208105B0BDE8F0830000A6
:100EB00000127A0040420F00A08601000146088A15
:100EC000C0B2704712B141F0010102E04FF6FE736B
:100ED00019400182704701827047000008B5012166
:100EE0001C2000F01FF90320ADF8000010208DF841
:100EF000030003208DF8020069460248FFF730FD29
:100F000008BD0000000C014000BFFEE77047000074
:100F100070B5002100230F22C47804B3154C246857
:100F200004F4E064C4F5E064210AC1F10403CA409A
:100F3000447804FA03F184781440214309010E4CEB
:100F40000678A155047804F01F050124AC4005780B
:100F50006D11AD0005F1E025C5F8004109E0047808
:100F600004F01F050124AC40044D0678761145F8C5
:100F7000264070BD0CED00E000E400E080E100E000
:100F800010B500F097F800F063F800F09DF810BD80
:100F90002DE9F04705460C4616464FF0000AA01C06
:100FA000C4B2D1463AE005F1B000C2B200217820C7
:100FB000FFF768FD2746E01704EB107000111030B2
:100FC000C2B200217820FFF75DFDE01704EB10703E
:100FD0000011A4EB0010C2B200217820FFF752FDEF
:100FE0004FF0000811E00AEB0610A0F500700E4962
:100FF0000A5C40217820FFF745FD0AF1010000F06E
:10100000FF0A08F1010000F0FF08B8F1080FEADB61
:10101000681CC5B209F1010000F0FF09B9F1020F27
:10102000C1DBBDE8F0870000BA26000870B50646AF
:101030000C46002508E014F8012BE806010E3046A6
:10104000FFF7A6FF681CC5B220780028F3D170BD59
:1010500070B5B0241BE0224600217820FFF712FD76
:10106000102200217820FFF70DFD00221146782084
:10107000FFF708FD002506E0002240217820FFF759
:1010800001FD681CC5B2802DF6DB601CC4B2B82C13
:10109000E1DB70BD10B504460548427C0021782094
:1010A000FFF7F0FC224600217820FFF7EBFC10BD93
:1010B0001400002010B50348027800217820FFF7C3
:1010C000E1FC10BD1400002010B50348C27E0021D1
:1010D0007820FFF7D7FC10BD1400002010B500F0F9
:1010E00009F800F07DFA024800F0FEFC10BD000097
:1010F0000000A54310B5002211468020FFF75EFDD9
:1011000010BD704729B1064AD2690243044BDA6127
:1011100004E0034AD2698243014BDA617047000060
:101120000010024029B1064A92690243044B9A61B9
:1011300004E0034A92698243014B9A6170470000C0
:101140000010024010B500F02FF84FF4803000F08E
:10115000EDF800F049F90446012C24D14FF4E011D8
:10116000000400F027F9002000F0D4F8A00200F0FD
:1011700003F9002000F00CF90220FFF7AFF910206E
:10118000FFF79EF9012000F00FF900BF392000F0B1
:101190009BF80028FAD0022000F01AF900BF00F0F6
:1011A000B1F80828FBD110BD0F48006840F00100DD
:1011B0000D490860084640680C4908400A494860E3
:1011C000084600680A490840074908600846006860
:1011D00020F4802008600846406820F4FE00486043
:1011E0004FF41F0088607047001002400000FFF8B5
:1011F000FFFFF6FE30B500210022002400232D4D14
:101200006D6805F00C0121B1042905D0082923D10E
:1012100005E0294D056022E0274D05601FE0254DC2
:101220006D6805F47012234D6D6805F48034022555
:1012300005EB92421CB9214D554305600BE01D4D55
:101240006D6805F400351DB11C4D5543056002E085
:10125000194D5543056002E0174D056000BF00BF02
:10126000144D6D6805F0F0010909154D6B5C0568BA
:10127000DD4045600F4D6D6805F4E061090A104DD1
:101280006B5C4568DD4085600A4D6D6805F4605112
:10129000C90A0B4D6B5C4568DD40C560054D6D6846
:1012A00005F44041890B074D6B5CC568B5FBF3F550
:1012B000056130BD0010024000127A0000093D00B7
:1012C000000000201000002010B50146002200237D
:1012D00000204A11012A02D1094C236806E0022AA3
:1012E00002D1074C236A01E0054C636A01F01F023A
:1012F000012494401C400CB1012000E0002010BDEE
:10130000001002400248406800F00C0070470000E6
:101310000010024001460020034A506820F0F0000F
:1013200008435060704700000010024011490968EE
:1013300021F480310F4A11601146096821F480219F
:101340001160B0F5803F03D0B0F5802F0ED106E0DC
:101350000849096841F48031064A116007E00549EF
:10136000096841F4A021034A116000E000BF00BFFA
:10137000704700000010024001460020034A5068F8
:1013800020F4E06008435060704700000010024005
:1013900001460020034A506820F4605040EAC10032
:1013A0005060704700100240014908667047000015
:1013B0000000424202460020044B586820F47C1092
:1013C00042EA01031843014B586070470010024085
:1013D00001460020034A506820F003000843506093
:1013E000704700000010024038B500200090002433
:1013F000002500BF3120FFF767FF05460098401C1D
:1014000000900098B0F5A06F01D0002DF2D03120EF
:10141000FFF75AFF08B1012400E00024204638BD40
:1014200010B5022000F00EF8022000F003F800F0E2
:1014300025F810BD024909888143014A118070478F
:101440000428004001460020064A12880A40D0B213
:10145000044A121F12880A4012B108B1012000E0AC
:10146000002070470428004010B50120FFF7EAFF74
:101470000120FFF7DFFF00F001F810BD00BF0348B7
:10148000008800F020000028F9D0704704280040B0
:10149000704710B500F002F810BD00000CB5002038
:1014A000019000903348006840F480303149086072
:1014B00000BF3048006800F4003000900198401CE4
:1014C0000190009818B90198B0F5A06FF1D12948A2
:1014D000006800F4003010B10120009001E000200D
:1014E00000900098012843D12348006840F0100084
:1014F000214908600846006820F007000860084697
:10150000006840F0020008601A48406819494860C5
:101510000846406848600846406840F4806048607B
:101520000846406820F47C1048600846406840F453
:10153000E81048600846006840F08070086000BF0E
:101540000C48006800F000700028F9D00948406895
:1015500020F00300074948600846406840F0020058
:10156000486000BF0348406800F00C000828F9D12B
:101570000CBD000000100240002002407047000037
:1015800010B51348006840F0010011490860084692
:101590004068104908400E494860084600680E49F6
:1015A00008400B4908600846006820F48020086065
:1015B0000846406820F4FE0048604FF41F00886031
:1015C000FFF767FF4FF000600449086010BD00009E
:1015D000001002400000FFF8FFFFF6FE08ED00E0FB
:1015E00010B507A10220FFF721FD08A10420FFF795
:1015F0001DFD032000F090F9FFF72AFD10BD00004B
:101600002020202020736572766F0000202020208B
:10161000202074786574000010B540F225511F48F1
:1016200000F0A0F8002838D01C4800F057F9C4B2E8
:1016300021461BA0FEF7CEFD1A48008800F40040AA
:1016400058BB1848008800F4804060B10A2C03D0D1
:1016500000201449088020E01248008840F400402F
:101660001049088019E00D2C06D10E48008840F47E
:1016700080400C49088010E00A480088C0F30D0043
:1016800009490C5407480088401C06490880084650
:101690000088C72801DD0020088010BD0038014007
:1016A00025630000340000203800002010B586B00B
:1016B0000446012144F20400FFF734FD4FF40070AA
:1016C000ADF8140003208DF8160018208DF81700CF
:1016D00005A91C48FFF744F94FF48060ADF81400E9
:1016E00004208DF8170005A91648FFF739F92520C1
:1016F0008DF8000003208DF801008DF80200012014
:101700008DF803006846FFF703FC01940020ADF854
:101710000800ADF80A00ADF80C00ADF810000C2080
:10172000ADF80E0001A9084800F06CF8012240F263
:101730002551054800F040F80121034800F006F863
:1017400006B010BD000801400038014021B1828977
:1017500042F40052828104E082894DF6FF731A4000
:101760008281704770B502460024002300250020C6
:1017700040F66A16B14200D100BFC1F3421501F034
:101780001F03012606FA03F3012D02D19689334087
:1017900006E0022D02D1168A334001E0968A3340DA
:1017A0000C12012606FA04F41688344013B10CB169
:1017B000012000E0002070BDF0B5034600240026A3
:1017C0000025002040F66A17B94200D100BF184634
:1017D000C1F3421401F01F06012707FA06F5012C98
:1017E00001D10C3004E0022C01D1103000E01430A3
:1017F0001AB107682F43076002E00768AF4307602C
:10180000F0BD00002DE9F04786B005460E460024E5
:10181000A24600BFA1460027B08900B100BF2F46F5
:101820002C8A4CF6FF700440F08804432C82AC896B
:101830004EF6F3100440B08831890843718908439B
:101840000443AC81AC8A4FF6FF400440B0890443A6
:10185000AC8201A8FFF7CEFC1F48874202D1DDF819
:1018600010A001E0DDF80CA0A88900F4004040B110
:101870000AEBCA0000EB0A1031684900B0FBF1F82E
:1018800007E00AEBCA0000EB0A1031688900B0FBE0
:10189000F1F86420B8FBF0F004012009642101FB99
:1018A0001089A88900F4004040B1322000EBC90043
:1018B000B0FBF1F000F00700044308E0322000EB39
:1018C00009106421B0FBF1F000F00F0004432C81FB
:1018D00006B0BDE8F0870000003801400146888866
:1018E000C0F30800704700BFFEE730380A2801D275
:1018F0000120704700207047014600BF704700B5C7
:10190000034603E04FF47A7000F013F81800A3F1D7
:1019100001018BB2F6D100BD10B5044603E04FF4CF
:101920007A70FFF7ECFF2000A4F101018CB2F6D130
:1019300010BD00EBC001C9004FF0E0225161002151
:1019400091610521116100BF4FF0E021096901F4A7
:1019500080310029F8D004214FF0E0221161704756
:101960002DE9F041C1F30A52A2F2FF362F4A304B63
:101970000D460446142E2FDA002E12DA00F044F938
:101980000022134600F05CFB4CD2002DA4BF0024C3
:10199000254647DA25F00040204318BF254D41D0A9
:1019A00018E0DFF894C02CFA06F705EA070C5CEAA9
:1019B000040C08BFBDE8F08100F026F900221346B0
:1019C00000F03EFB2ED2002D03DA4FF48010F040E1
:1019D0000544BD43002425E0332EC8BFBDE8F08197
:1019E000A6F1140C4FF0FF3727FA0CF73C4208BF62
:1019F000BDE8F08100F05AFB0022134600F020FB06
:101A000010D2002D0DDA142E08BF6D1C09D0C6F1BE
:101A10003400012101FA00F02044A04238BF6D1CBF
:101A20000446BC4329462046BDE8F0819C750088E9
:101A30003CE4377E0000F0BFFFFF0F0000BF054A07
:101A4000128802F04002002AF9D0C2B2014B1B1DDD
:101A50001A80704700380140FFF774FBFFF73EFA29
:101A60004FF4E130FFF722FEFFF714F9FFF788FA91
:101A7000FF20FFF70FFBFFF731FB4FF44040084911
:101A80000880FEF71FFE0AE04FF4006200210420E8
:101A900000F008F80A20FFF73FFFFEF731FEF3E7FA
:101AA0003400002070B504460D461646EAB2A00088
:101AB000801DC1B28020FFF781F82A12A000C01D4E
:101AC000C1B28020FFF77AF8F2B2A0000830C1B2AC
:101AD0008020FFF773F83212A0000930C1B28020D5
:101AE000FFF76CF870BD00002DE9FE4F81464846B7
:101AF00000F0D2FB0746274A274B00F0A3F9054622
:101B000000F050F88146254800904FF08B41009836
:101B100000F050FC00904946009800F04BFC00900B
:101B20004FF07E51009800F053FD0090009800F0B7
:101B3000B3FB054600221A4B00F066F80746FFF794
:101B40000FFF824600F014F9C0B2029000218020FD
:101B5000FEF7D6FF044604F07F0040F0100001902D
:101B600000218020019AFFF729F8FE218020029AA7
:101B7000FFF724F8224600218020FFF71FF80120FC
:101B8000FFF7CAFE44F0A10200218020FFF716F8FB
:101B9000BDE8FE8FCDCCCCCCCCCCEC3F20BCBE4B3A
:101BA0000000E03F21F00042A2F16052B2F5801F38
:101BB00001F0004328BFD2F17F6C0BD95FEA001C13
:101BC00043EAC20242EB507018BF704728BF20F0B2
:101BD00001007047B2F5801FBCBF184670474FEA3E
:101BE000410C1CF5001F02D2084600F0EBBC70B59A
:101BF00000F0D2F900000089FFF7F6BF4FF0004077
:101C0000A0F580007047000010B591EA030F48BFAF
:101C100083F0004300F15E82841A71EB030C05D25D
:101C2000121943EB0C03001B61EB0C01DFF824E1FC
:101C30004FEA1154A4EB135C1EEA430F18BF9EEA4F
:101C4000445F73D023EA0E03DCF1200E21EA045135
:101C500043F4801332D322FA0CFE10EB0E0023FA69
:101C60000CFE41EB0E01CCF1200E03FA0EFE10EB40
:101C70000E0051F10001B1F5801FCCF1200E32D2DF
:101C800001EB045112FA0EF2BDE8104058BF704744
:101C9000401C38BF5FEA420218BF7047002814BFDB
:101CA00020F0010041F100014FEA410313F5001F4C
:101CB00038BF7047A1F1C04100F0BCB9012A43EB25
:101CC0000302ACF1200CDCF11F0E32BF4FF0000E0E
:101CD00023FA0CF310EB030041EB0451B4EB115F5A
:101CE000D0D0A1EB045101F5801149085FEA300022
:101CF00001EB04510ED350F1000038BF12FA0EFE72
:101D000008D1BDE81040C9E7401C38BF5FEA420275
:101D1000CAD1C3E7BDE810404FEA410313F5001FE5
:101D200038BF7047A1F1C04100F084B99EEA445F1A
:101D300008D011EA5E0FBDE8104004BF01F0004179
:101D400000207047BDE8104070B500F025F900BFD5
:101D500064FBBE3E0000E0FF491058BFC1F14041A6
:101D60005B1058BFC3F140438B42EFF300807047D4
:101D70004FEA1153A3F58063D3F11E03A8BFD3F13B
:101D8000200C08DB4FF0004242EAC12252EA5052D6
:101D900032FA03F0704709420BD4102BC4BF002065
:101DA000704703F5787CBCF1FF3F05D04FF0FF3062
:101DB00070474FF00000704770B500F0EDF800BFBD
:101DC0004992248000207047F0E7000051EA030C9C
:101DD00017D41CF5801F58BFBCF5801F00F106808A
:101DE000994218BF704708BF9042704707D711F556
:101DF000801F58BF13F5801F19D49942704789423C
:101E000070471CF5801F08D5BCF5801FF7D58B42A5
:101E100018BF704708BF824270474FF4001C1CEB8C
:101E2000410F38BF1CEB430F01D28B42704770B596
:101E300000F0B2F8922449004FF000514FF0805367
:101E4000FFF78ABFDFF848C170B51CEA111E1EBF3C
:101E50001CEA13159EEA0C0F95EA0C0F00F06F8038
:101E600081EA030423EA4C134EEAD47E21EA4C11A2
:101E700041F4801143F48013AE44A1FB024CA0FB5B
:101E80000365AEF17F7E361955EB0C05A1FB034CC3
:101E90004CF10003A0FB021C16EB0C06654153F14C
:101EA0000003094218BF46F0010613F4007F0BD16E
:101EB0004FEA03314FEA0530340341EA155140EA55
:101EC00016506FF003020AE04FEAC3214FEAC52023
:101ED000F40241EA555140EA56506FF0020202EB1B
:101EE0002E4201EB025585EACE710AD05FEA440C1E
:101EF00018BF24F0004450F1000041F1000120EA35
:101F0000D47040F2FE7C624500D270BDA84214BF7E
:101F10004FF080444FF04044002E08BF0024BEF133
:101F2000806FA8BFA1F1C041BDE8704080F28280FF
:101F30004FF0000001F1C04101F0004170479EEAFE
:101F40000C0F0CEA131518BF95EA0C0F06D04FF0D2
:101F5000000081EA030E0EF0004170BD00F01CF895
:101F60008900013E00F007B800F009B84FEA430CC1
:101F70005FEA5C5C08D081EA030100F05BB84FEADD
:101F8000410C5FEA5C5CF6D14FF0000001497047FC
:101F90000000FF070000F87F0EF1020E2EF0030E86
:101FA0005EF8046B364205D4012A43EB030515F5B0
:101FB000001F12D8012841EB010C1CF5001F0CD8A2
:101FC0000ED14FEAD17C15F5001F0CEB4C0C0CF137
:101FD000020C08BF4CEBD37C04E04FF0080C01E08E
:101FE0004FEAD37C0CEB4C0526FA05F606F0070603
:101FF000B6F1040C06D20EEB860CBDE870404CF036
:10200000010C6047DFE80CF0090B02024FF00041C1
:102010004FF00000A1F5002170BD194610460128BF
:1020200051EB010418BFD4F5001484BF002001F067
:10203000004170BD0808A0F500114FEA310170475A
:1020400053EA010C17D41CF5801F58BFBCF5801F44
:1020500000F106808B4218BF704708BF824270476C
:1020600007D713F5801F58BF11F5801F19D48B4275
:1020700070479B4270471CF5801F08D5BCF5801F38
:10208000F7D5994218BF704708BF904270474FF488
:10209000001C1CEB430F38BF1CEB410F01D29942CF
:1020A00070470FB40CBC03BCFFF7C1BE91EA030F2D
:1020B00010B581F000413FF5AFAD83F0004300F073
:1020C00009B8000010B591EA030F48BF83F0004340
:1020D0003FF5A2AD841A71EB030C07D212198CF0F4
:1020E000004C43EB0C03001B61EB0C01DFF8A4E197
:1020F0004FEA1154A4EB135C1EEA430F18BF9EEA8B
:10210000445F00F0B08023EA6E03524221EA04519A
:10211000C3EB6E0338BF5B1EDCF1200E25D322FA21
:102120000CFE10EB0E0043FA0CFE41EB0E01CCF15D
:10213000200E03FA0EFE10EB0E0051F10001CCF15F
:10214000200E29D412FA0EF201EB0451BDE8104022
:1021500058BF7047401C1CBFB2F1004F70470028A9
:102160000CBF491C20F00100704712EB020E43EB3C
:10217000030218BF4FF0010E4EEA4202ACF1200CF0
:10218000DCF11E0E54D943FA0CFE10EB0E0051F197
:10219000FF31CCF11E0ED5D50EF1010E12FA0EFE56
:1021A000404141EB010101EB445C5FEA5C5C10D90A
:1021B00010EBDE7001EB045138BFBEF1004FBDE8FB
:1021C000104018BF704700280CBF491C20F00100C8
:1021D000704730D24FEAD42C11F5001124F400647A
:1021E0001BD0B1FA81F20B3AA41AA41ED2F120033B
:1021F000914030FA03F31943904001EBCC71002C6D
:1022000001EB0451BDE81040A8BF704701F1C04187
:102210004FF0000001F000417047B0FA80F310FA6F
:1022200003F100D110BDE41A173C4805C90AE4E7E0
:1022300001EB045110BD491001EB0451BDE8104001
:102240004FEA300002E04FF0000170474A0008BF3B
:102250000042F8D0B2F5001F28BF704701F00041DE
:102260004FF0000070479EEA445F07D011EA5E0F0E
:10227000BDE8104004BF002100207047BDE81040B9
:1022800070B5FFF789FE00BF40DFF63E83F00041E6
:10229000104670470000E0FF43004FEAD30C4FEABE
:1022A0003C0C43401FBF40070CF1605113F0FE4F40
:1022B00070471CF0006F03D100200CF00041704704
:1022C0000CF0004343EA507010B540EACC0000F037
:1022D00033F900BF000000924FEA0001FFF7AABEE9
:1022E0004FF000414FF00000A1F5002170470000C1
:1022F00090EA010F48BF81F0004100F17081421A5D
:102300003CBF801A89184FEAD0524FF07F4C1CEA2C
:10231000410FA2EBD15318BF9CEA026F00F03B8043
:102320004FF0004C4CEA00204CEA012121FA03FC5A
:1023300010EB0C0C1ED202F1FF325FEA1C2040EBC6
:10234000C25038BF70471CF07F0F4FEA400C18BFD7
:10235000BCF17F4F38BF7047C3F12003994008BFDD
:1023600020F00100BCF17F4F38BF7047A0F1C040A2
:1023700000F028B94FEA3C00000A40EBC25028BFE9
:102380001CF0FF0F4FEA400CE6D018BFBCF17F4FA6
:1023900038BF7047EAE79CEA026F05D010EA5C0F8D
:1023A00008BF00F00040704710B500F0C5F800BF4E
:1023B00064FBBE3E4FF47F0C1CEAD0121EBF1CEA29
:1023C000D11392EA0C0F93EA0C0F00F0858090EA8B
:1023D000010F48BF42F4807240F4000C41F4000049
:1023E0002CF07F4120F07F4000B58142A2EB030238
:1023F0000FF2081CACEB504EC0F100009EF800E05C
:102400004FEA4E0E00FB0EFC38BF49004FEA2C1C71
:1024100002F5FA020CFB0EF34FEACE1E4FEA112C26
:102420004FEAC1210EEB635E42EB22420EFB0CFC35
:102430004FEA1C5300FB03114FEA112C4FEA013104
:102440000EFB0CFC4FEADC4C00FB0C11C14228BF18
:1024500009184CEB03335DF804EB10EB410143EB3F
:10246000C250B2F57C0F38BF704729D512F0F00F7B
:102470001CBF00F1C04000F0004070470081828323
:102480008485868788898B8C8D8E8F919293959683
:1024900097999A9C9D9FA0A2A3A5A7A8AAACAEB00D
:1024A000B2B3B5B7B9BCBEC0C2C5C7C9CCCED1D412
:1024B000D7D9DCDFE2E6E9ECF0F3F7FAFE00000042
:1024C0004FEA400C0CF1807CBCF17E4F28BF704776
:1024D000B0F1C04000F076B890EA010F0CEAD113D9
:1024E00048BF42F48072624538BF634507D213F497
:1024F0007F0F16D080EA010000F00040704710B551
:1025000000F01AF8097EFC3E00F005B880EA0100F0
:1025100000F00040704780EA010000F0004000F049
:1025200051B812F47F0F04BF0248704780EA0100DF
:1025300000F048B80000C07F0EF1020E2EF0030E2E
:102540005EF8044B244204D44FEA4102B2F17F4FBB
:1025500011D84FEA4003B3F17F4F0CD80ED14FEAA8
:10256000D07CB2F17F4F0CEB4C0C0CF1020C08BF8D
:102570004CEBD17C04E04FF0080C01E04FEAD17C39
:102580000CEB4C0324FA03F404F00704B4F1040C3C
:1025900006D20EEB840CBDE810404CF0010C6047F5
:1025A000DFE80CF0070802024FF00040A0F58000C1
:1025B00010BD0846420018BFD2F1807288BF00F0FB
:1025C000004010BDFF2141EAD050C0057047000017
:1025D00090EA010F48BF81F000413FF590AE421AEA
:1025E00004D882F00042A0EB020011444FEAD0521E
:1025F0004FF07F4C1CEA410FA2EBD15318BF9CEA6D
:10260000026F4AD04FF0004C4CEA00204CEA012106
:1026100021FA03FCB0EB0C0C0FD412F0FE0F36D0F5
:102620005FEA4C001DD5001240EBC25038BF704726
:102630001CF03F0F18BF70470BE0A2F101025FEAE8
:102640001C2040EBC25038BF70471CF07F0F18BFF2
:102650007047C3F12003994014BF401E20F00100D1
:10266000704780084FEA122308BF7047B0FA80FC19
:10267000A2EB0C02CCF1280C60FA0CF093EA122FBA
:1026800004BF00EBC25070474FEAC3707047130A93
:102690005FEADC1008BF7047F6E79CEA026F04D0DF
:1026A00010EA5C0F08BF0020704710B5FFF744FF29
:1026B00040DFF63E81F0004070470000000000005F
:1026C00000000000000000000000000038FCFC38A2
:1026D00000000000000D0D000000000E1E00001E96
:1026E0000E00000000000000000020F8F820F8F8BC
:1026F0002000020F0F020F0F0200387C444747CC26
:1027000098000306041C1C07030030300080C060E2
:1027100030000C060301000C0C0080D87CE4BCD80F
:102720004000070F0808070F080000101E0E0000E9
:10273000000000000000000000000000F0F80C04A1
:102740000000000003070C0800000000040CF8F073
:1027500000000000080C0703000080A0E0C0C0E0FB
:10276000A0800002030101030200008080E0E080FD
:1027700080000000000303000000000000000000D3
:1027800000000000101E0E0000008080808080800D
:1027900080000000000000000000000000000000B9
:1027A00000000000000C0C00000000000080C06071
:1027B00030000C06030100000000F8FC04C424FCF7
:1027C000F800070F0908080F0700001018FCFC00AC
:1027D00000000008080F0F080800080C84C4643CBF
:1027E00018000E0F0908080C0C00080C444444FCA7
:1027F000B800040C0808080F0700C0E0B098FCFC03
:102800008000000000080F0F08007C7C4444C4C412
:102810008400040C0808080F0700F0F84C4444C07A
:102820008000070F0808080F07000C0C0484C47C04
:102830003C0000000F0F00000000B8FC444444FCC2
:10284000B800070F0808080F0700387C444444FC10
:10285000F800000808080C070300000000303000F2
:1028600000000000000606000000000000303000FC
:1028700000000000080E060000000080C060301854
:10288000080000000103060C0800404040404040A2
:10289000400002020202020202000008183060C07A
:1028A000800000080C0603010000181C04C4E43C6E
:1028B00018000000000D0D000000F0F808C8C8F86E
:1028C000F000070F080B0B0B0100E0F0988C98F05C
:1028D000E0000F0F0000000F0F0004FCFC4444FC5C
:1028E000B800080F0F08080F0700F0F80C04040CDC
:1028F000180003070C08080C060004FCFC040CF884
:10290000F000080F0F080C07030004FCFC44E40C63
:102910001C00080F0F08080C0E0004FCFC44E40C1B
:102920001C00080F0F0800000000F0F80C84848CD5
:10293000980003070C0808070F00FCFC404040FC0F
:10294000FC000F0F0000000F0F00000004FCFC044F
:1029500000000000080F0F08000000000004FCFC4D
:102960000400070F08080F07000004FCFCC0F03C3F
:102970000C00080F0F00010F0E0004FCFC04000007
:102980000000080F0F08080C0E00FCFC387038FC23
:10299000FC000F0F0000000F0F00FCFC3870E0FC83
:1029A000FC000F0F0000000F0F00F0F80C040CF8F3
:1029B000F00003070C080C07030004FCFC44447CF3
:1029C0003800080F0F0800000000F8FC040404FCA5
:1029D000F800070F080E3C3F270004FCFC44C4FC31
:1029E0003800080F0F00000F0F00183C6444C49C0F
:1029F0001800060E0808080F0700001C0CFCFC0C51
:102A00001C000000080F0F080000FCFC000000FC88
:102A1000FC00070F0808080F0700FCFC000000FC82
:102A2000FC000103060C06030100FCFC008000FC16
:102A3000FC00030F0E030E0F03000C3CF0C0F03C33
:102A40000C000C0F0300030F0C00003C7CC0C07C8A
:102A50003C000000080F0F0800001C0C84C4643CFC
:102A60001C000E0F0908080C0E000000FCFC0404FA
:102A7000000000000F0F080800003870E0C0800060
:102A800000000000000103070E0000000404FCFC2D
:102A90000000000008080F0F0000080C0603060CD9
:102AA000080000000000000000000000000000001E
:102AB0000000202020202020202000000307040008
:102AC0000000000000000000000000A0A0A0E0C086
:102AD0000000070F0808070F080004FCFC2060C076
:102AE0008000080F0708080F0700C0E020202060C2
:102AF0004000070F0808080C040080C06024FCFC9C
:102B00000000070F0808070F0800C0E0A0A0A0E021
:102B1000C000070F0808080C040040F8FC440C181B
:102B20000000080F0F0800000000C0E02020C0E0F7
:102B30002000276F48487F3F000004FCFC4020E055
:102B4000C000080F0F00000F0F00000020ECEC0089
:102B500000000000080F0F0800000000000020EC3B
:102B6000EC0000307040407F3F0004FCFC80C060FF
:102B70002000080F0F01030E0C00000004FCFC00F5
:102B800000000000080F0F080000E0E060C060E0F7
:102B9000C0000F0F000F000F0F0020E0C02020E04A
:102BA000C000000F0F00000F0F00C0E0202020E049
:102BB000C000070F0808080F070020E0C02020E031
:102BC000C000407F7F48080F0700C0E02020C0E021
:102BD0002000070F08487F7F400020E0C060206091
:102BE000C000080F0F080000000040E0A020206097
:102BF0004000040C09090B0E04002020F8FC2020E2
:102C000000000000070F080C0400E0E00000E0E016
:102C10000000070F0808070F080000E0E00000E0D0
:102C2000E0000003070C0C070300E0E0000000E0F8
:102C3000E000070F0C070C0F07002060C080C06089
:102C40002000080C0703070C0800E0E0000000E08B
:102C5000E000474F4848683F1F00606020A0E060E8
:102C600020000C0E0B09080C0C00004040F8BC04BE
:102C70000400000000070F080800000000BCBC00B2
:102C800000000000000F0F000000000404BCF8402A
:102C900040000008080F07000000080C040C080C96
:102CA0000400000000000000000080C0603060C030
:102CB0008000070704040407070004000008000060
:102CC000000000000002000100001000EC2C0008D1
:102CD000000000203800000028010008242D000812
:102CE0003800002028070000440100080000000010
:102CF000010203040102030406070809020406088E
:102D0000AE0010D580A83FD300B0408D14A1C8DA22
:102D10001281FFD9F1DB302000A4A6AF0000000033
:042D200000000000AF
:04000005080000ED02
:00000001FF
