:020000040800F2
:100000006007002091010008790D00087F0A0008B0
:10001000750D0008B9040008F7160008000000007C
:10002000000000000000000000000000D9120008DD
:10003000BD04000800000000490F0008C5130008B7
:10004000AB010008AB010008AB010008B1120008C9
:10005000AB010008AB010008AB010008AB010008D0
:10006000AB010008AB010008AB010008AB010008C0
:10007000AB010008AB010008AB010008AB010008B0
:10008000AB010008AB010008AB010008AB010008A0
:10009000AB010008AB010008AB010008AB01000890
:1000A000AB010008AB010008AB010008AB01000880
:1000B000AB010008AB010008AB010008AB01000870
:1000C000AB010008AB010008AB010008AB01000860
:1000D000AB01000829140008AB010008AB010008BF
:1000E000AB01000869120008AB01000800F002F83B
:1000F00000F03FF80AA090E8000C82448344AAF183
:100100000107DA4501D100F034F8AFF2090EBAE880
:100110000F0013F0010F18BFFB1A43F0010318473B
:10012000B81C0000D81C0000103A24BF78C878C161
:10013000FAD8520724BF30C830C144BF04680C60ED
:10014000704700000023002400250026103A28BF35
:1001500078C1FBD8520728BF30C148BF0B60704739
:10016000632900F05781002070471FB51FBD10B5EF
:1001700010BD00F071F91146FFF7F7FF01F006FB23
:1001800000F08FF903B4FFF7F2FF03BC01F0BCFAF3
:100190000948804709480047FEE7FEE7FEE7FEE71B
:1001A000FEE7FEE7FEE7FEE7FEE7FEE70448054957
:1001B000054A064B70470000C9130008ED0000080F
:1001C0006001002060070020600300206003002021
:1001D000704700000FB4044910B503AA029800F05C
:1001E00025F910BC5DF814FB3000002070B50C46FA
:1001F0000546012A05D02878800600D5EA69002343
:1002000002E0012305E05B1C934202D2E05C00287F
:10021000F9D1A869E618C01AA861286A18442862AA
:100220002846AFF3008004E0D5E9012114F8010B62
:100230009047B442F8D32846AFF3008070BD000069
:100240002DE9F05F894604464FF0000ADFF874B1EB
:10025000FB44C0F820A02046E1688847002874D0FD
:10026000252806D0D4E901219047206A401C20624D
:10027000F1E700265F462046E168884720280546CA
:1002800007DB312D05D2781910F8200C08B1064390
:10029000F1E7B00701D526F00406C4F81CA000273A
:1002A000C4F818A02A2D09D0284601F026FA38B340
:1002B00004EB8708303DC8F8185019E059F8041BC2
:1002C000204604EB87029161E1688847012F0546CB
:1002D00018D1E069002820DA26F020061DE0D8F8C1
:1002E000180000EB800005EB40003038C8F818001B
:1002F0002046E1688847054601F0FFF90028EED165
:10030000012F0AD02E2D08D12046E16888477F1C96
:100310000546022F46F02006C4DBA069002803DA58
:10032000404246F00106A061F00701D026F0100619
:100330006C2D0BD0682D09D04C2D39D06A2D35D0BD
:10034000742D35D07A2D33D016E038E0E1682F4691
:1003500020468847B842054609D16C2F26D04FF475
:100360008060E168064320468847054604E06C2F1C
:100370001AD04FF4807006430DB3A5F1410019283F
:1003800002D8203546F400664A46294620462660B3
:100390004E46FFF7E5FE80B101280BD0F61D26F092
:1003A000070000F1080956E74020E4E78020D8E77D
:1003B0000020D6E706F104094DE7284652E7206AF7
:1003C000BDE8F09F701B0000704770477047704792
:1003D00001694A1C02610878704700B58FB0CDE909
:1003E00001310021059105497944CDE903101146F9
:1003F0006846FFF725FF0FB000BD0000E5FFFFFFD7
:1004000010B5436913B1AFF3008001E0FFF7EEFED2
:10041000012010BD127800F124010A7000224A70F8
:100420000122EDE711684FF0FF32E9E7074B70B5A5
:100430000D467B44FFF7D1FF0446284600F008F83C
:1004400010B14FF0FF3070BD204670BD3B1300006F
:10045000007B00F080007047754600F029F8AE463A
:1004600005006946534620F00700854618B020B5C0
:10047000FFF79CFEBDE820404FF000064FF000075C
:100480004FF000084FF0000B21F00701AC46ACE83C
:10049000C009ACE8C009ACE8C009ACE8C0098D46A9
:1004A00070470446AFF300802046FFF76BFE000064
:1004B000004870470001002000BFFEE770470000C1
:1004C0000549096821F01001034A116011460968C5
:1004D00001431160704700000020024001460020E7
:1004E000034A106800F038000843106070470000AD
:1004F0000020024010B509A1002000F0CDFC0BA1A6
:10050000022000F0C9FC0DA1042000F0C5FC03206E
:1005100001F00AF900F0D2FC10BD0000496E7075C0
:100520007420436F6D6D616E643A0000202020627C
:1005300061636B776F72642E2E2E000050657266B9
:100540006F726D2074686520656E64210000000084
:1005500010B509A1002000F09FFC0BA1022000F0C3
:100560009BFC0DA1042000F097FC032001F0DCF8B7
:1005700000F0A4FC10BD0000496E70757420436F3C
:100580006D6D616E643A0000202020666F72776F97
:1005900072642E2E2E000000506572666F726D2000
:1005A00074686520656E64210000000010B509A123
:1005B000002000F071FC0BA1022000F06DFC0EA1E8
:1005C000042000F069FC032001F0AEF800F076FC96
:1005D00010BD0000496E70757420436F6D6D616EC3
:1005E000643A000073746F70206261636B776F729E
:1005F0006B2E2E2E00000000506572666F726D200B
:1006000074686520656E64210000000010B509A1C2
:10061000002000F041FC0BA1022000F03DFC0DA1E8
:10062000042000F039FC032001F07EF800F046FCC5
:1006300010BD0000496E70757420436F6D6D616E62
:10064000643A000073746F7020666F72776F726423
:100650002E2E2E00506572666F726D2074686520B4
:10066000656E64210000000010B509A1002000F0B3
:1006700013FC0BA1022000F00FFC0DA1042000F0E0
:100680000BFC032001F050F800F018FC10BD000036
:10069000496E70757420436F6D6D616E643A000031
:1006A000202020616C6C2073746F702E2E2E000041
:1006B000506572666F726D2074686520656E642186
:1006C0000000000010B507A1022000F0E5FB09A121
:1006D000042000F0E1FB032001F026F800F0EEFB1F
:1006E00010BD00002020536861646F77206B6E6935
:1006F00066650000202020202073797374656D00EA
:1007000010B54E48008800F44040002872D04B4895
:100710000088C0F30D0000280CD149A0FFF75AFD56
:1007200050A0FFF757FD5CA0FFF754FD65A0FFF751
:1007300051FD7FE041480088C0F30D00022811D12F
:100740006B48007866280DD169484078662809D141
:100750000121684800F091F967A0FFF73BFDFFF722
:10076000F7FE67E035480088C0F30D00022811D17C
:100770005F48007873280DD15D484078662809D11C
:1007800001215C4800F077F95EA0FFF723FDFFF739
:100790003DFF4FE029480088C0F30D00022811D129
:1007A0005348007862280DD151484078622809D119
:1007B0000221504800F061F956A0FFF70BFDFFF74A
:1007C00099FE37E01D480088C0F30D00022812D1C1
:1007D0004748007873280ED14548407862280AD1EE
:1007E0000221444800F047F94DA0FFF7F3FCFFF762
:1007F000DDFE1FE021E011480088C0F30D00022853
:1008000015D13B480078732811D1394840787328B6
:100810000DD10121374800F02EF90221354800F0B2
:100820002AF943A0FFF7D6FCFFF71EFF02E043A022
:10083000FFF7D0FC00200149088010BD34000020E3
:1008400020202020202020202020202020202020A8
:100850002020202020202020202020202020202098
:10086000200D0A0020E8AFB7E8BE93E585A5E4BBFC
:10087000A5E4B88BE68C87E4BBA4EFBC8CE5B9B6E5
:10088000E59B9EE8BDA6E8BF9BE8A18CE6938DE4BE
:10089000BD9CEFBC9A0D0A002066662DE5898DE8A7
:1008A000BF9B202062622DE5908EE980802020731E
:1008B000732DE5819CE6ADA2202020202020200D74
:1008C0000A0000002073662DE5819CE6ADA2E58953
:1008D0008DE8BF9B202073622DE5819CE6ADA2E5EB
:1008E000908EE9808020202020202020200D0A00EA
:1008F00038000020000C0140E5898DE8BF9B200DE9
:100900000A000000E5819CE6ADA2E5898DE8BF9B69
:10091000200D0A00E5908EE98080200D0A0000007D
:10092000E5819CE6ADA2E5908EE98080200D0A006D
:10093000E5819CE6ADA2200D0A000000E68C87E46C
:10094000BBA4E99499E8AFAFEFBC8CE8AFB7E987F7
:100950008DE696B0E8BE93E585A5200D0A0000005F
:100960002DE9F04102460025002600200023002446
:10097000002791F803C00CF00F0591F803C00CF0AC
:10098000100CBCF1000F03D091F802C04CEA050531
:1009900091F800C0BCF1000F31D0146800202BE0AA
:1009A0004FF0010C0CFA00F3B1F800C00CEA03069A
:1009B0009E4220D183004FF00F0C0CFA03F7BC438A
:1009C00005FA03FC4CEA040491F803C0BCF1280FBB
:1009D00006D14FF0010C0CFA00FCC2F814C00AE07A
:1009E00091F803C0BCF1480F05D14FF0010C0CFA8F
:1009F00000FCC2F810C0401C0828D1D31460B1F824
:100A000000C0BCF1FF0F34DD546800202EE000F17F
:100A1000080C4FF0010808FA0CF3B1F800C00CEA1A
:100A200003069E4221D183004FF00F0C0CFA03F70E
:100A3000BC4305FA03FC4CEA040491F803C0BCF182
:100A4000280F05D100F1080C08FA0CF8C2F8148040
:100A500091F803C0BCF1480F07D100F1080C4FF02A
:100A6000010808FA0CF8C2F81080401C0828CED300
:100A70005460BDE8F081416170470161704700BF7B
:100A8000FEE7000070B504460E46154601211948E0
:100A900000F0C0F800BF1849164800F031F80028EF
:100AA000F9D000222146134800F042F900BF134953
:100AB000104800F025F80028F9D031460D4800F024
:100AC00040F900BF0D49891C0A4800F019F80028B8
:100AD000F8D02946074800F034F900BF0749891CBF
:100AE000044800F00DF80028F8D00121014800F07A
:100AF0009DF870BD00540040010003008200070013
:100B000070B502460024002500230020958A138B2F
:100B10001B0445EA030626F07F4404EA01068E42E0
:100B200001D1012000E0002070BD21B1028842F017
:100B30000102028004E002884FF6FE731A40028030
:100B4000704700001FB500F03DF80020ADF804002C
:100B50004BF6FF70ADF80600C020ADF808004FF46A
:100B60008060ADF80A000001ADF80C00124800905A
:100B70006946124800F066F801211048FFF7D5FFDA
:100B80000020ADF804004BF6FF70ADF80600C02061
:100B9000ADF808004FF48060ADF80A000001ADF830
:100BA0000C00054800906946054800F04BF801210B
:100BB0000348FFF7BAFF1FBD400D0300005400407B
:100BC0000058004008B501211C2000F0CFF9012198
:100BD0004FF4C00000F0BAF9C020ADF800001C20AE
:100BE0008DF8030003208DF8020069460848FFF7DE
:100BF000B7FE4FF44060ADF800001C208DF80300F4
:100C000003208DF8020069460148FFF7A9FE08BDE0
:100C1000000C014021B1028842F48072028004E09D
:100C200002884FF6FF631A400280704721B10288A4
:100C300042F40072028004E002884FF6FF531A402B
:100C4000028070472DE9F04385B004460D4600262A
:100C5000B1460427DFF8CC80A6884FF6C070064066
:100C6000684600F0EBF9DDF808802F48B8FBF0F09B
:100C70001FFA80F946EA0906A68020884FF6FE7121
:100C80000840208000262949286888420CD8286816
:100C90004000B8FBF0F087B2042F00DA04273E438F
:100CA00009F10100208427E0E8884BF6FF718842B3
:100CB00006D1286800EB4000B8FBF0F087B209E0ED
:100CC000286800EBC00101EB0010B8FBF0F087B220
:100CD00047F48047C7F30B0008B947F0010747F412
:100CE000004006434FF4967009FB00F04FF47A7110
:100CF00090FBF1F0401C2084A683208840F0010086
:100D0000208026884FF6F5300640A8886989084378
:100D100006432680A88929890843208105B0BDE8BB
:100D2000F083000000127A0040420F00A08601000C
:100D300012B141F0010102E04FF6FE731940018249
:100D4000704701827047000008B501211C2000F0A7
:100D50000DF90320ADF8000010208DF803000320EA
:100D60008DF8020069460248FFF7FAFD08BD000051
:100D7000000C014000BFFEE77047000070B5002185
:100D800000230F22C47804B3154C246804F4E064F3
:100D9000C4F5E064210AC1F10403CA40447804FAAE
:100DA00003F184781440214309010E4C0678A155C3
:100DB000047804F01F050124AC4005786D11AD00E6
:100DC00005F1E025C5F8004109E0047804F01F05AD
:100DD0000124AC40044D0678761145F8264070BDDC
:100DE0000CED00E000E400E080E100E010B500F070
:100DF00097F800F063F800F09DF810BD2DE9F0477A
:100E000005460C4616464FF0000AA01CC4B2D14657
:100E10003AE005F1B000C2B200217820FFF732FEBF
:100E20002746E01704EB107000111030C2B2002109
:100E30007820FFF727FEE01704EB10700011A4EBF9
:100E40000010C2B200217820FFF71CFE4FF000080E
:100E500011E00AEB0610A0F500700E490A5C402173
:100E60007820FFF70FFE0AF1010000F0FF0A08F1F9
:100E7000010000F0FF08B8F1080FEADB681CC5B2FA
:100E800009F1010000F0FF09B9F1020FC1DBBDE873
:100E9000F0870000C417000870B506460C46002510
:100EA00008E014F8012BE806010E3046FFF7A6FF14
:100EB000681CC5B220780028F3D170BD70B5B0248D
:100EC0001BE0224600217820FFF7DCFD10220021E4
:100ED0007820FFF7D7FD002211467820FFF7D2FDDA
:100EE000002506E0002240217820FFF7CBFD681C9A
:100EF000C5B2802DF6DB601CC4B2B82CE1DB70BD3E
:100F000010B504460548427C00217820FFF7BAFD61
:100F1000224600217820FFF7B5FD10BD1400002007
:100F200010B50348027800217820FFF7ABFD10BD13
:100F30001400002010B50348C27E00217820FFF77E
:100F4000A1FD10BD140000207047000029B1064A21
:100F5000D2690243044BDA6104E0034AD269824356
:100F6000014BDA61704700000010024029B1064AC7
:100F700092690243044B9A6104E0034A92698243F6
:100F8000014B9A61704700000010024010B500F05C
:100F90002FF84FF4803000F0EDF800F049F90446E6
:100FA000012C24D14FF4E011000400F027F90020B7
:100FB00000F0D4F8A00200F003F9002000F00CF9D2
:100FC0000220FFF78BFA1020FFF77AFA012000F0D9
:100FD0000FF900BF392000F09BF80028FAD002205A
:100FE00000F01AF900BF00F0B1F80828FBD110BDDD
:100FF0000F48006840F001000D490860084640684D
:101000000C4908400A494860084600680A490840F7
:10101000074908600846006820F4802008600846F8
:10102000406820F4FE0048604FF41F00886070475D
:10103000001002400000FFF8FFFFF6FE30B500216F
:101040000022002400232D4D6D6805F00C0121B114
:10105000042905D0082923D105E0294D056022E0A7
:10106000274D05601FE0254D6D6805F47012234D76
:101070006D6805F48034022505EB92421CB9214DC0
:10108000554305600BE01D4D6D6805F400351DB13D
:101090001C4D5543056002E0194D5543056002E0C3
:1010A000174D056000BF00BF144D6D6805F0F001DD
:1010B0000909154D6B5C0568DD4045600F4D6D6895
:1010C00005F4E061090A104D6B5C4568DD40856000
:1010D0000A4D6D6805F46051C90A0B4D6B5C45689B
:1010E000DD40C560054D6D6805F44041890B074D35
:1010F0006B5CC568B5FBF3F5056130BD00100240BF
:1011000000127A0000093D000000002010000020BD
:1011100010B501460022002300204A11012A02D105
:10112000094C236806E0022A02D1074C236A01E039
:10113000054C636A01F01F02012494401C400CB16D
:10114000012000E0002010BD00100240024840686D
:1011500000F00C0070470000001002400146002023
:10116000034A506820F0F0000843506070470000C8
:10117000001002401149096821F480310F4A1160C2
:101180001146096821F480211160B0F5803F03D039
:10119000B0F5802F0ED106E00849096841F480318E
:1011A000064A116007E00549096841F4A021034A95
:1011B000116000E000BF00BF704700000010024057
:1011C00001460020034A506820F4E0600843506064
:1011D000704700000010024001460020034A50689A
:1011E00020F4605040EAC100506070470010024097
:1011F0000149086670470000000042420246002094
:10120000044B586820F47C1042EA01031843014B58
:10121000586070470010024001460020034A5068A1
:1012200020F00300084350607047000000100240A7
:1012300038B5002000900024002500BF3120FFF7C2
:1012400067FF05460098401C00900098B0F5A06F1D
:1012500001D0002DF2D03120FFF75AFF08B1012450
:1012600000E00024204638BD10B5022000F00EF842
:10127000022000F003F800F025F810BD02490988AB
:101280008143014A11807047042800400146002034
:10129000064A12880A40D0B2044A121F12880A4035
:1012A00012B108B1012000E000207047042800407E
:1012B00010B50120FFF7EAFF0120FFF7DFFF00F084
:1012C00001F810BD00BF0348008800F0200000288E
:1012D000F9D0704704280040704710B500F002F8BC
:1012E00010BD00000CB5002001900090334800684C
:1012F00040F480303149086000BF3048006800F495
:10130000003000900198401C0190009818B9019895
:10131000B0F5A06FF1D12948006800F4003010B199
:101320000120009001E0002000900098012843D1A6
:101330002348006840F01000214908600846006812
:1013400020F0070008600846006840F002000860CE
:101350001A4840681949486008464068486008468D
:10136000406840F4806048600846406820F47C1083
:1013700048600846406840F4E81048600846006845
:1013800040F08070086000BF0C48006800F00070FA
:101390000028F9D00948406820F003000749486058
:1013A0000846406840F00200486000BF03484068BB
:1013B00000F00C000828F9D10CBD0000001002401C
:1013C000002002407047000010B51348006840F04C
:1013D00001001149086008464068104908400E495C
:1013E0004860084600680E4908400B4908600846F6
:1013F000006820F4802008600846406820F4FE0061
:1014000048604FF41F008860FFF767FF4FF00060EF
:101410000449086010BD0000001002400000FFF801
:10142000FFFFF6FE08ED00E010B540F225511F4821
:1014300000F0A0F8002838D01C4800F057F9C4B2DA
:1014400021461BA0FEF7C6FE1A48008800F40040A3
:1014500058BB1848008800F4804060B10A2C03D0C3
:1014600000201449088020E01248008840F4004021
:101470001049088019E00D2C06D10E48008840F470
:1014800080400C49088010E00A480088C0F30D0035
:1014900009490C5407480088401C06490880084642
:1014A0000088C72801DD0020088010BD00380140F9
:1014B00025630000340000203800002010B586B0FD
:1014C0000446012144F20400FFF750FD4FF4007080
:1014D000ADF8140003208DF8160018208DF81700C1
:1014E00005A91C48FFF73CFA4FF48060ADF81400E2
:1014F00004208DF8170005A91648FFF731FA2520BA
:101500008DF8000003208DF801008DF80200012005
:101510008DF803006846FFF731FC01940020ADF818
:101520000800ADF80A00ADF80C00ADF810000C2072
:10153000ADF80E0001A9084800F06CF8012240F255
:101540002551054800F040F80121034800F006F855
:1015500006B010BD000801400038014021B1828969
:1015600042F40052828104E082894DF6FF731A40F2
:101570008281704770B502460024002300250020B8
:1015800040F66A16B14200D100BFC1F3421501F026
:101590001F03012606FA03F3012D02D19689334079
:1015A00006E0022D02D1168A334001E0968A3340CC
:1015B0000C12012606FA04F41688344013B10CB15B
:1015C000012000E0002070BDF0B503460024002695
:1015D0000025002040F66A17B94200D100BF184626
:1015E000C1F3421401F01F06012707FA06F5012C8A
:1015F00001D10C3004E0022C01D1103000E0143095
:101600001AB107682F43076002E00768AF4307601D
:10161000F0BD00002DE9F04786B005460E460024D7
:10162000A24600BFA1460027B08900B100BF2F46E7
:101630002C8A4CF6FF700440F08804432C82AC895D
:101640004EF6F3100440B08831890843718908438D
:101650000443AC81AC8A4FF6FF400440B089044398
:10166000AC8201A8FFF7EAFC1F48874202D1DDF8EF
:1016700010A001E0DDF80CA0A88900F4004040B102
:101680000AEBCA0000EB0A1031684900B0FBF1F820
:1016900007E00AEBCA0000EB0A1031688900B0FBD2
:1016A000F1F86420B8FBF0F004012009642101FB8B
:1016B0001089A88900F4004040B1322000EBC90035
:1016C000B0FBF1F000F00700044308E0322000EB2B
:1016D00009106421B0FBF1F000F00F0004432C81ED
:1016E00006B0BDE8F0870000003801400146888858
:1016F000C0F30800704700BFFEE730380A2801D267
:101700000120704700207047014600BF704700B5B8
:10171000034603E04FF47A7000F013F81800A3F1C9
:1017200001018BB2F6D100BD10B5044603E04FF4C1
:101730007A70FFF7ECFF2000A4F101018CB2F6D122
:1017400010BD00EBC001C9004FF0E0225161002143
:1017500091610521116100BF4FF0E021096901F499
:1017600080310029F8D004214FF0E0221161704748
:1017700000BF054A128802F04002002AF9D0C2B226
:10178000014B1B1D1A80704700380140FFF7FEFB1C
:10179000FFF7DAFA4FF4E130FFF790FEFFF7D2F9E6
:1017A000FFF724FBFF20FFF7ABFB4FF44040044959
:1017B0000880FEF787FF01E0FEF7A2FFFCE70000CC
:1017C00034000020000000000000000000000000C5
:1017D00000000000000038FCFC3800000000000D94
:1017E0000D000000000E1E00001E0E000000000094
:1017F0000000000020F8F820F8F82000020F0F0287
:101800000F0F0200387C444747CC98000306041CA5
:101810001C07030030300080C06030000C0603015C
:10182000000C0C0080D87CE4BCD84000070F0808EE
:10183000070F080000101E0E00000000000000004E
:10184000000000000000F0F80C0400000000030796
:101850000C0800000000040CF8F000000000080C68
:101860000703000080A0E0C0C0E0A08000020301E8
:1018700001030200008080E0E0808000000000039F
:101880000300000000000000000000000000101E27
:101890000E000000808080808080800000000000BA
:1018A0000000000000000000000000000000000C2C
:1018B0000C00000000000080C06030000C06030136
:1018C00000000000F8FC04C424FCF800070F09081D
:1018D000080F0700001018FCFC0000000008080FAB
:1018E0000F080800080C84C4643C18000E0F090897
:1018F000080C0C00080C444444FCB800040C080814
:10190000080F0700C0E0B098FCFC80000000000851
:101910000F0F08007C7C4444C4C48400040C0808F5
:10192000080F0700F0F84C4444C08000070F080877
:10193000080F07000C0C0484C47C3C0000000F0F4F
:1019400000000000B8FC444444FCB800070F08083D
:10195000080F0700387C444444FCF80000080808DD
:101960000C070300000000303000000000000006FB
:101970000600000000000030300000000000080EEB
:10198000060000000080C06030180800000001035D
:10199000060C080040404040404040000202020265
:1019A000020202000008183060C0800000080C0627
:1019B00003010000181C04C4E43C18000000000DE2
:1019C0000D000000F0F808C8C8F8F000070F080B79
:1019D0000B0B0100E0F0988C98F0E0000F0F000076
:1019E000000F0F0004FCFC4444FCB800080F0F0873
:1019F000080F0700F0F80C04040C180003070C088B
:101A0000080C060004FCFC040CF8F000080F0F089A
:101A10000C07030004FCFC44E40C1C00080F0F0836
:101A2000080C0E0004FCFC44E40C1C00080F0F081A
:101A300000000000F0F80C84848C980003070C0868
:101A400008070F00FCFC404040FCFC000F0F0000AA
:101A5000000F0F00000004FCFC0400000000080F51
:101A60000F08000000000004FCFC0400070F080839
:101A70000F07000004FCFCC0F03C0C00080F0F0036
:101A8000010F0E0004FCFC0400000000080F0F080A
:101A9000080C0E00FCFC387038FCFC000F0F000036
:101AA000000F0F00FCFC3870E0FCFC000F0F000082
:101AB000000F0F00F0F80C040CF8F00003070C08FE
:101AC0000C07030004FCFC44447C3800080F0F089A
:101AD00000000000F8FC040404FCF800070F080EE6
:101AE0003C3F270004FCFC44C4FC3800080F0F00F6
:101AF000000F0F00183C6444C49C1800060E080830
:101B0000080F0700001C0CFCFC0C1C000000080F58
:101B10000F080000FCFC000000FCFC00070F080898
:101B2000080F0700FCFC000000FCFC000103060C91
:101B300006030100FCFC008000FCFC00030F0E0308
:101B40000E0F03000C3CF0C0F03C0C000C0F030027
:101B5000030F0C00003C7CC0C07C3C000000080F60
:101B60000F0800001C0C84C4643C1C000E0F090804
:101B7000080C0E000000FCFC0404000000000F0F25
:101B8000080800003870E0C080000000000000017C
:101B900003070E0000000404FCFC0000000008081D
:101BA0000F0F0000080C0603060C080000000000E0
:101BB00000000000000000000000000020202020A5
:101BC0002020202000000307040000000000000087
:101BD0000000000000A0A0A0E0C00000070F08085F
:101BE000070F080004FCFC2060C08000080F0708F5
:101BF000080F0700C0E0202020604000070F080801
:101C0000080C040080C06024FCFC0000070F0808DA
:101C1000070F0800C0E0A0A0A0E0C000070F080860
:101C2000080C040040F8FC440C180000080F0F08D2
:101C300000000000C0E02020C0E02000276F4848DE
:101C40007F3F000004FCFC4020E0C000080F0F00B4
:101C5000000F0F00000020ECEC0000000000080F57
:101C60000F0800000000000020ECEC000030704085
:101C7000407F3F0004FCFC80C0602000080F0F0183
:101C8000030E0C00000004FCFC0000000000080F24
:101C90000F080000E0E060C060E0C0000F0F000F20
:101CA000000F0F0020E0C02020E0C000000F0F0058
:101CB000000F0F00C0E0202020E0C000070F080840
:101CC000080F070020E0C02020E0C000407F7F48D0
:101CD000080F0700C0E02020C0E02000070F0848E0
:101CE0007F7F400020E0C0602060C000080F0F0828
:101CF0000000000040E0A02020604000040C090922
:101D00000B0E04002020F8FC202000000000070F2C
:101D1000080C0400E0E00000E0E00000070F080805
:101D2000070F080000E0E00000E0E0000003070CFF
:101D30000C070300E0E0000000E0E000070F0C07E4
:101D40000C0F07002060C080C0602000080C070353
:101D5000070C0800E0E0000000E0E000474F4848C2
:101D6000683F1F00606020A0E06020000C0E0B099F
:101D7000080C0C00004040F8BC0404000000000700
:101D80000F080800000000BCBC0000000000000FAD
:101D90000F000000000404BCF84040000008080FD9
:101DA00007000000080C040C080C040000000000F0
:101DB0000000000080C0603060C08000070704049D
:101DC00004070700040000080000000000000002F3
:101DD0000001000010000000F81D000800000020B5
:101DE0003800000028010008301E000838000020DC
:101DF000280700004401000800000000010203045D
:101E0000010203040607080902040608AE0010D503
:101E100080A83FD300B0408D14A1C8DA1281FFD949
:101E2000F1DB302000A4A6AF00000000000000009D
:04000005080000ED02
:00000001FF
