:020000040800F2
:100000003007002091010008C7040008BF04000861
:10001000C3040008B90400087F07000800000000BE
:100020000000000000000000000000003D05000886
:10003000BD04000800000000C904000829060008EB
:10004000AB010008AB010008AB0100081505000872
:10005000AB010008AB010008AB010008AB010008D0
:10006000AB010008AB010008AB010008AB010008C0
:10007000AB010008AB010008AB010008AB010008B0
:10008000AB010008AB010008AB010008AB010008A0
:10009000AB010008AB010008AB010008AB01000890
:1000A000AB010008AB010008AB010008AB01000880
:1000B000AB010008AB010008AB010008AB01000870
:1000C000AB010008AB010008AB010008AB01000860
:1000D000AB0100088D060008AB010008AB01000869
:1000E000AB010008CB040008AB01000800F002F8E7
:1000F00000F03FF80AA090E8000C82448344AAF183
:100100000107DA4501D100F034F8AFF2090EBAE880
:100110000F0013F0010F18BFFB1A43F0010318473B
:10012000AC060000CC060000103A24BF78C878C1A5
:10013000FAD8520724BF30C830C144BF04680C60ED
:10014000704700000023002400250026103A28BF35
:1001500078C1FBD8520728BF30C148BF0B60704739
:10016000632900F05781002070471FB51FBD10B5EF
:1001700010BD00F071F91146FFF7F7FF00F01AFB10
:1001800000F08FF903B4FFF7F2FF03BC00F000FBAF
:100190000948804709480047FEE7FEE7FEE7FEE71B
:1001A000FEE7FEE7FEE7FEE7FEE7FEE70448054957
:1001B000054A064B704700002D060008ED000008B8
:1001C00030010020300700203003002030030020E1
:1001D000704700000FB4044910B503AA029800F05C
:1001E00025F910BC5DF814FB0000002070B50C462A
:1001F0000546012A05D02878800600D5EA69002343
:1002000002E0012305E05B1C934202D2E05C00287F
:10021000F9D1A869E618C01AA861286A18442862AA
:100220002846AFF3008004E0D5E9012114F8010B62
:100230009047B442F8D32846AFF3008070BD000069
:100240002DE9F05F894604464FF0000ADFF874B1EB
:10025000FB44C0F820A02046E1688847002874D0FD
:10026000252806D0D4E901219047206A401C20624D
:10027000F1E700265F462046E168884720280546CA
:1002800007DB312D05D2781910F8200C08B1064390
:10029000F1E7B00701D526F00406C4F81CA000273A
:1002A000C4F818A02A2D09D0284600F06AFA38B3FD
:1002B00004EB8708303DC8F8185019E059F8041BC2
:1002C000204604EB87029161E1688847012F0546CB
:1002D00018D1E069002820DA26F020061DE0D8F8C1
:1002E000180000EB800005EB40003038C8F818001B
:1002F0002046E1688847054600F043FA0028EED121
:10030000012F0AD02E2D08D12046E16888477F1C96
:100310000546022F46F02006C4DBA069002803DA58
:10032000404246F00106A061F00701D026F0100619
:100330006C2D0BD0682D09D04C2D39D06A2D35D0BD
:10034000742D35D07A2D33D016E038E0E1682F4691
:1003500020468847B842054609D16C2F26D04FF475
:100360008060E168064320468847054604E06C2F1C
:100370001AD04FF4807006430DB3A5F1410019283F
:1003800002D8203546F400664A46294620462660B3
:100390004E46FFF7E5FE80B101280BD0F61D26F092
:1003A000070000F1080956E74020E4E78020D8E77D
:1003B0000020D6E706F104094DE7284652E7206AF7
:1003C000BDE8F09F640500007047704770477047B4
:1003D00001694A1C02610878704700B58FB0CDE909
:1003E00001310021059105497944CDE903101146F9
:1003F0006846FFF725FF0FB000BD0000E5FFFFFFD7
:1004000010B5436913B1AFF3008001E0FFF7EEFED2
:10041000012010BD127800F124010A7000224A70F8
:100420000122EDE711684FF0FF32E9E7074B70B5A5
:100430000D467B44FFF7D1FF0446284600F008F83C
:1004400010B14FF0FF3070BD204670BD6303000057
:10045000007B00F080007047754600F029F8AE463A
:1004600005006946534620F00700854618B020B5C0
:10047000FFF79CFEBDE820404FF000064FF000075C
:100480004FF000084FF0000B21F00701AC46ACE83C
:10049000C009ACE8C009ACE8C009ACE8C0098D46A9
:1004A00070470446AFF300802046FFF76BFE000064
:1004B00000487047D000002000BFFEE7704700BF33
:1004C000FEE700BFFEE77047704710B5022000F05E
:1004D0000FF8022000F004F800F026F810BD00002C
:1004E000024909888143014A11807047042800406D
:1004F00001460020064A12880A40D0B2044A121F60
:1005000012880A4012B108B1012000E000207047B3
:100510000428004010B50120FFF7EAFF0120FFF793
:10052000DFFF00F001F810BD00BF0348008800F0B5
:1005300020000028F9D0704704280040704710B50B
:1005400000F002F810BD00000CB5002001900090F2
:100550003348006840F480303149086000BF3048BB
:10056000006800F4003000900198401C0190009851
:1005700018B90198B0F5A06FF1D12948006800F4CE
:10058000003010B10120009001E0002000900098A0
:10059000012843D12348006840F010002149086039
:1005A0000846006820F0070008600846006840F030
:1005B000020008601A4840681949486008464068C7
:1005C00048600846406840F48060486008464068DB
:1005D00020F47C1048600846406840F4E810486009
:1005E0000846006840F08070086000BF0C48006852
:1005F00000F000700028F9D00948406820F003009E
:10060000074948600846406840F00200486000BF63
:100610000348406800F00C000828F9D10CBD000028
:1006200000100240002002407047000010B513483F
:10063000006840F001001149086008464068104910
:1006400008400E494860084600680E4908400B49BA
:1006500008600846006820F480200860084640686A
:1006600020F4FE0048604FF41F008860FFF767FF2A
:100670004FF000600449086010BD00000010024007
:100680000000FFF8FFFFF6FE08ED00E010B540F2B5
:1006900025511F4800F044F8002838D01C4800F0CD
:1006A00069F8C4B221461BA0FFF794FD1A480088E0
:1006B00000F4004058BB1848008800F4804060B146
:1006C0000A2C03D000201449088020E0124800883A
:1006D00040F400401049088019E00D2C06D10E4866
:1006E000008840F480400C49088010E00A480088E7
:1006F000C0F30D0009490C5407480088401C064906
:10070000088008460088C72801DD0020088010BD49
:10071000003801402563000004000020080000208C
:1007200070B50246002400230025002040F66A161A
:10073000B14200D100BFC1F3421501F01F030126F1
:1007400006FA03F3012D02D19689334006E0022D0B
:1007500002D1168A334001E0968A33400C120126FA
:1007600006FA04F41688344013B10CB1012000E0FD
:10077000002070BD01468888C0F30800704700BFA4
:10078000FEE730380A2801D2012070470020704768
:10079000014600BF7047000000BF054A128802F002
:1007A0004002002AF9D0C2B2014B1B1D1A807047CB
:1007B0000038014000BFFEE7040000080000000010
:1007C000000000020001000010000000EC0700081B
:1007D000000000200800000028010008F4070008BD
:1007E0000800002028070000440100080000000065
:0407F0000000000005
:04000005080000ED02
:00000001FF
